:0300000002000EED
:20000B0002007275817F12023912024B12016C12038512009D740112019512023074C612CB
:20002B0001959005B71201AD74371201E0740112019512023074881201959005BE1201AD5D
:20004B0074C81201959005C51201AD749C1201959005CF1201AD74D41201959005D712014C
:20006B00AD1200AD020040C28D12007832C32093207A0874003093FDA294332093FD309394
:20008B00FDDAF2B46E0B740112019512023002004022758901758CF0758A60D2A9D2AFD27D
:2000AB008C227511037400C32093FD7A082093FD3093FD2093FD3093FDA294332093FD306C
:2000CB0093FDDAF53093FD2093FD3093FDD511D5B4681074011201951202307480120195A2
:2000EB000203BFB4780B74011201951202300202DFB4640302010322752609752409752593
:20010B000D740112019512023074C3120195E524120AED1201CF743A1201A1E525120AED1E
:20012B001201CF743A1201A1E526120AED1201CF0526E526B43C177526000525E525B43C7E
:20014B000D7525000524E524B4180375240074021201E074DB1201959005E71201AD0201B4
:20016B00141201F97438120195120208740C120195120208740C12019512020874061201CF
:20018B0095120208748012019522C2CDD2CEF5B0120230C2CE22D2CDD2CEF5B0120230C231
:2001AB00CE22E49360061201A1A380F622C0E0C0D0540F2430B43A00400224071201A1D0B2
:2001CB00D0D0E022C0E0C0D0C41201B8C41201B8D0D0D0E022C0E0C0D0C0F075F032120227
:2001EB000FD5F0FAD5E0F4D0F0D0D0D0E022C0E0C0D075E01AD5E0FDD0D0D0E02212020F65
:20020B0012020F22C0E0C0D075E0641201F9D5E0FAD0D0D0E022C0E0C0D075E011D5E0FD30
:20022B00D0D0D0E0227B327CFFDCFEDBFA22C08F758F04C0B275B20043B1FFD0B2D08F2262
:20024B00C08F758F04C0B275B20075C9FFD0B2D08F22C0E0C0D0C007C006C005C0047F009E
:20026B007E987D967C8012090DECC47F007E0F7D427C4012090D4CC0E07F007E017D867C5E
:20028B00A012090DECC47F007E007D277C1012090D4CC0E07F007E007D037CE812090DECA5
:2002AB00C47F007E007D007C6412090D4CC0E07F007E007D007C0A12090DECC448F8D0E039
:2002CB00F9D0E0FAD0E0FBD004D005D006D007D0D0D0E0221202ED12033E74141201E0022C
:2002EB0002DF12039F53F0C0C0E0543F45F02323F8D0E054C02323A9E0227A887B43120826
:20030B00997C007D037E007F0012090DECA8E0EDA9E0EEAAE0EFABE012025DE9C41201B853
:20032B00742E1201A1E91201B8E81201CF74561201A122748012019512030512035574DBCF
:20034B001201959005E71201AD227A647B001208997C007D4A7E007F0012090DECA8E0EDB7
:20036B00A9E0EEAAE0EFABE012025D74C0120195E81201CF74251201A122C08F758F0475A5
:20038B00D10075CAB075CE0A75CC8075D10675CC01D08F22C08F758F0475D10675CB80759D
:2003AB00D1000000E5CB20E0FB75D102E5CB85CAF0D08F221203C50203BF7511037400C3A0
:2003CB002093FD7A082093FD3093FD2093FD3093FDA294332093FD3093FDDAF53093FD2078
:2003EB0093FD3093FDD511D5B4A806746112057A22B44C06746212057A22B4840674631247
:20040B00057A22B4C406746412057A22B42406746512057A22B4D406746612057A22B42CC2
:20042B0006746712057A22B4CC06746812057A22B4C206746912057A22B4DC06746A120571
:20044B007A22B44206746B12057A22B4D206746C12057A22B43206746D12057A22B48C0682
:20046B00746E12057A22B42206746F12057A22B4B206747012057A22B43806747112057AFF
:20048B0022B4B406747212057A22B4D806747312057A22B43406747412057A22B43C067409
:2004AB007512057A22B45406747612057A22B45806747712057A22B44406747812057A2211
:2004CB00B4AC06747912057A22B4B806747A12057A22B45C06743F12057A22B466167410C8
:2004EB003195120208742031A11202087410319512020822B45A06749512019522B49406D0
:20050B00742012057A22B46806743112057A22B47806743212057A22B46406743312057A2E
:20052B0022B4A406743412057A22B47406743512057A22B46C06743612057A22B4BC0674DE
:20054B003712057A22B47C06743812057A22B46206743912057A22B4A206743012057A22E2
:20056B00B46E0B7401120195120230020040221201A108B81424B9000674C079018016B916
:20058B00010674947902800DB9020674D47903800474807900120195780022F6080512224A
:2005AB007830A912E61201A108D9F92248656C6C6F2100312E4368617400322E4261747458
:2005CB0065727900332E636C6F636B00507265737320312C32206F7220333A00455343200E
:2005EB00746F2072657475726E0008200800C0E0C08F758F04C0B2C0BF75BF0075B2025385
:20060B0090FD4390015391FE43910275B2005391FE43910275985075BE9B75BD11D0BFD00A
:20062B00B2D08FD0E022F5993099FDC29922C0E0C0D0540F120729120631120692D0D0D0C3
:20064B00E022C0E0C0D0C0E0C4120639D0E0120639D0D0D0E022C0E0C0D0E58312064DE553
:20066B008212064DD0D0D0E022C0E0C0D0C082C083E4936009120631120692A380F3D08325
:20068B00D082D0D0D0E022C0E0C0D0109805D0D0D0E022E599B413F61098F380FB3098FD26
:2006AB00C298E599221206A812071C120733400EC4F81206A812071C120733400148227886
:2006CB00541206A8547F12071CB40D02F622B40813B85407740712063180E6189005F51258
:2006EB00067480DD12070E40EBB87E0280E6F60880E478547954E6B4200508B880F822F71D
:20070B000980F7B420004007B47F005002C322D322B47B005007B461004002942022B40A63
:20072B000040022407243022C394304010B40A00400A94074007B41000B34001C322E61275
:20074B000733221207494009C4F9081207494001492212074E400AF5830812074E4002F5E5
:20076B008222C08F758F0475D10075CAB075CE0A75CC8075D10675CC01D08F22C08F758FCE
:20078B000475D10675CB2075D1000000E5CB20E0FB75D102E5CB85CAF0D08F22C08F758FA2
:2007AB000475D10675CB1075D1000000E5CB20E0FB75D102E5CB85CAF0D08F22C0E0C0D0B5
:2007CB00C070C071C072C073C074C075C076C077C078C079C07AC07BC07C75700075710085
:2007EB00757200757300757400757500757600757700757800757900757A00757B00757CCA
:20080B0020EB13FBEA13FAE913F9E813F8502CEC2574F574ED3575F575EE3576F576EF3542
:20082B0077F577E5703578F578E5713579F579E572357AF57AE573357BF57BC3EC33FCED31
:20084B0033FDEE33FEEF33FFE57033F570E57133F571E57233F572E57333F573D57CA2A8C2
:20086B0074A975AA76AB77AC78AD79AE7AAF7BD07CD07BD07AD079D078D077D076D075D0E9
:20088B0074D073D072D071D070D0D0D0E022C0E0C0D0C070C071C072C073C074C075C076CC
:2008AB00757000757100757200757300757400757500757610E913F9E813F85016EA2572F6
:2008CB00F572EB3573F573E5703574F574E5713575F575C3EA33FAEB33FBE57033F570E515
:2008EB007133F571D576CEA872A973AA74AB75D076D075D074D073D072D071D070D0D0D011
:20090B00E022C0E0C0D0C070C071C072C073C074C075C076C077C078C079C07AC07BC07CDC
:20092B00757000757100757200757300757400757500757600757700757800757900757A9E
:20094B0000757B00757C20E833F8E933F9EA33FAEB33FBE57033F570E57133F571E57233CD
:20096B00F572E57333F573C3E5709CF574E5719DF575E5729EF576E5739FF577400C857490
:20098B0070857571857672857773B3E57833F578E57933F579E57A33F57AE57B33F57BD50D
:2009AB007CA5AC78AD79AE7AAF7BA870A971AA72AB73D07CD07BD07AD079D078D077D07604
:2009CB00D075D074D073D072D071D070D0D0D0E022C0E0C0D0C070C071C072C073C074C021
:2009EB0075C076757000757100757200757300757400757500757610E833F8E933F9E5705C
:200A0B0033F570E57133F571C3E5709AF572E5719BF5734006857270857371B3E57433F588
:200A2B0074E57533F575D576CFAA74AB75A870A971D076D075D074D073D072D071D070D011
:200A4B00D0D0E022C0E0C0D0E82CF8E93DF9EA3EFAEB3FFB74003400FCD0D0D0E022C0E091
:200A6B00C0D0E82AF8E93BF974003400FAD0D0D0E022C0E0C0D0C3E89CF8E99DF9EA9EFA30
:200A8B00EB9FFB74009400FCD0D0D0E022C0E0C0D0C3E89AF8E99BF974009400FAD0D0D0F4
:200AAB00E022C0E0C0D0C077C078C0797579057B007A0A1209DCE8C0E0EAF8EBF9D579EFDD
:200ACB00D0E0FAD0E0C4F579D0E02579F9D0E0C4F579D0E02579F8D079D078D077D0D0D0C8
:200AEB00E022C0D0C0F075F00A84C425F0D0F0D0D022C0F0C0E0C0D0E8540FC0E0E8C45490
:200B0B000F75F00AA4D0F025F0C0E0E954F0C4C0E0E9540F75F064A4A9F0F8D0E075F00A39
:200B2B00A475F064A428F8E935F0F9D0E028F8740039F9D0D0D0E0D0F022C0D0C0F0C0705A
:200B4B00F57053700F54F0C475F00AA42570D070D0F0D0D022C083C082C0D0C08FC0B2C04B
:200B6B00BF758F0475BF0143B70843B70453B6F743B60490F000A3E582458370F943B602BB
:200B8B00E5B620E1FB30E0F5E5B7540F44A075BB98F5B753B7FB43B702E5B720E0FB53B7B5
:190BAB00F743B610D0BFD0B2D08FD0D0D082D08322438F0122538FFE2263
:00000001FF
